:020000040800F2
:10000000FCFF0020651A00005D1A00005D1A000068
:100010005D1A00005D1A00005D1A00005D1A000004
:100020005D1A00005D1A00005D1A00005D1A0000F4
:100030005D1A00005D1A00005D1A00005D1A0000E4
:100040005D1A00005D1A00005D1A00005D1A0000D4
:100050005D1A00005D1A00005D1A00005D1A0000C4
:100060005D1A00005D1A00005D1A00005D1A0000B4
:100070005D1A00005D1A00005D1A00005D1A0000A4
:100080005D1A00005D1A00005D1A00005D1A000094
:100090005D1A00005D1A00005D1A00005D1A000084
:1000A0005D1A00005D1A00005D1A00005D1A000074
:1000B0005D1A00005D1A00005D1A00005D1A000064
:1000C0005D1A00005D1A00005D1A00005D1A000054
:1000D0005D1A00005D1A00005D1A00005D1A000044
:1000E0005D1A00005D1A00005D1A00005D1A000034
:1000F0005D1A00005D1A00005D1A00005D1A000024
:100100005D1A00005D1A00005D1A00005D1A000013
:100110005D1A00005D1A00005D1A00005D1A000003
:100120005D1A00005D1A00005D1A00005D1A0000F3
:100130005D1A00005D1A00005D1A00005D1A0000E3
:100140005D1A00005D1A00005D1A00005D1A0000D3
:1001500001480068704700BF1000002083B0CDF850
:1001600000E000F0FF031A09104603F00F021346E7
:1001700014E0194A02921FE0184A02921CE0184A41
:10018000029219E0174A029216E0174A029213E00F
:10019000164A029210E0164A02920DE00028E8D0BA
:1001A0000128E9D00228EAD00328EBD00428ECD0BB
:1001B0000528EDD00628EED0012212B29A40ADF803
:1001C000042002980A46BDF8041000F0A3FADDF8F6
:1001D00000E003B0704700BF00080140000C014080
:1001E000001001400014014000180140001C0140B3
:1001F0000020014081B0194900EA010108460022AF
:100200000EE0042022E0082020E010201EE0202044
:100210001CE040201AE0802018E040F2001015E0B9
:100220000F498842EDD00F498842ECD00E498842F0
:10023000EBD00E498842EAD00D498842E9D00D49F9
:100240008842E8D00C498842E7D010460B4909683B
:1002500041EA000209490A6001B0704700FCFFFF53
:1002600000080140000C0140001001400014014052
:1002700000180140001C01400020014018100240FD
:1002800082B0CDF800E0034619460191FFF760FF08
:1002900040F2E83100FB01F201990A601F49097838
:1002A000C1F30311C8B21E4909180878C0B21A1D5B
:1002B0001968C140116019490988C1F3022188B247
:1002C000174909180878C0B203F20802191D096815
:1002D000C140116011490988C1F3C22188B2104997
:1002E00009180878C0B203F20C02191D0968C14050
:1002F00011600A490988C1F3813188B20949091896
:100300000978C8B203F2100203F20C010968B1FBCC
:10031000F0F11160DDF800E002B070470410024017
:10032000EE1D0000FC19000081B0CDF800E081B2A4
:10033000034800F0F9FADDF800E001B0704700BFB3
:100340000038004081B0CDF800E081B2034800F0F1
:10035000EBFADDF800E001B0704700BF003C004060
:1003600081B0CDF800E0012252B23E490A6000F2AD
:1003700068010B686FF0006103EA0102144603F0A4
:100380000061C90E0B4602F00041B1F1004F02D1ED
:1003900035490A6801E035490A6804F47021090CFE
:1003A0000E464FF6FF7104EA01010D4604F44011B8
:1003B000B1F5401F0DD16FF0706102EA01010E46E8
:1003C0002A490A686FF070610A4028490A6032467B
:1003D00016E004F48011B1F5801F09D14FF003013C
:1003E000B140C94302EA010141F070610A4607E0E9
:1003F000610D090105FA01F1C9430A4042F070623A
:100400002BB1610D090105FA01F10A43FFE704F080
:100410000041B1F1004F02D113490A6001E01349D4
:100420000A6040F2000A81464FEA8A0109EB0101A5
:100430000968B1F1FF3F10D009F134014FEA8A0396
:10044000C91809680A4609EB0301096808461146FC
:10045000FFF784FE0AF1010AE6E7DDF800E001B0EB
:10046000704700BF000342421C00014004000140ED
:1004700081B0CDF800E081B2034800F055FADDF814
:1004800000E001B0704700BF0030014081B00023A0
:100490000360CB009BB242EA030304689BB244EAC8
:1004A00003030360051D13141C462B6864F38203C9
:1004B0002B6000F21C0500242B6864F3CB232B6017
:1004C0000124036864F38613036001B07047FFFFE3
:1004D00089B0CDF800E0834698B28C46BDF8241070
:1004E0000A9E04ACADF80410ADF808002046FFF7F2
:1004F000C7FEBDF80800BDF80410644CA34512D136
:1005000001256DB2624C2560624D634C2560634DE0
:10051000634C2560634D644C2560644D644C2560DC
:10052000079C039456E0634CA34512D101256DB29C
:10053000614C2560614D584C2560614D584C2560DB
:10054000604D594C2560604D594C2560069C0394C4
:1005500040E05E4CA34512D101256DB25C4C256094
:100560005C4D4D4C25605C4D4D4C25605B4D4E4CBB
:1005700025605B4D4E4C2560069C03942AE0594C47
:10058000A34512D101256DB2574C2560574D424C01
:100590002560574D424C2560564D434C2560564DC5
:1005A000434C2560069C039414E0544CA34511D1A0
:1005B00001256DB2524C2560524D374C2560524D8D
:1005C000374C2560514D384C2560514D384C2560D5
:1005D000069C0394ADF80410ADF808003046FFF710
:1005E000BFFEBDF80800BDF804100BF11005002493
:1005F0002C600BF110052C680C432C600BF10C05E2
:1006000000242C6018B140F4806080B2FFE70BF149
:100610000C052C6804432C600BF10C060125346892
:1006200065F34D3434600BF10C060125346865F335
:10063000C30434600BF10C060125346865F38204B1
:1006400034600BF1140500242C60039D19246543CC
:100650004FEA8C04B5FBF4F76424B7FBF4F42601ED
:10066000350964246C433C1B240104F232056424E4
:10067000B5FBF4F404F00F0446EA04040BF108059A
:10068000A4B22C60DDF800E009B0704700380140EA
:1006900038034242610A00001C000020FFFFFFFFF8
:1006A00020000020FFFFFFFF24000020FFFFFFFFCE
:1006B0002800002000440040C4034242E509000035
:1006C000FFFFFFFFFFFFFFFFFFFFFFFF00480040AE
:1006D000C8034242010A0000FFFFFFFFFFFFFFFFC8
:1006E000FFFFFFFF004C0040CC0342424D090000D9
:1006F000FFFFFFFFFFFFFFFFFFFFFFFF0050004076
:10070000D0034242AD090000FFFFFFFFFFFFFFFFE4
:10071000FFFFFFFF81B0CDF800E08CB21546774BAC
:1007200000EA03031E461846FFF764FDB4F1FF0F0D
:100730000CD1734B9D4203D14FF033333360D9E07A
:10074000422D03D14FF044333360D3E04FF6FF73B3
:100750009C4214D16A4B9D4207D14FF03333336032
:10076000341D4FF033332360C4E0422D07D14FF0E6
:1007700044333360341D4FF044332360BAE000212A
:10078000002005F001030BB100211DE005F002037C
:1007900033B105F4C0730BB1082100E0042113E06C
:1007A00005F0040333B105F020030BB1042100E090
:1007B000002109E005F0080333B105F020030BB177
:1007C0000C2100E00821FFE74E4B05EA03030BB1C3
:1007D000032009E005F400730BB1022004E005F4E6
:1007E00080630BB10120FFE705F00C030BB101435F
:1007F000FFE704F0FF039BB2002B3BD037680020DB
:100800001FFA84F832462E4608282CD24FF00103F6
:1008100003FA00F408EA0403A34222D185004FF052
:100820000F03AB40DB4307EA030401FA05F344EA94
:1008300003031D4606F48173B3F5817F05D102F2EF
:1008400014044FF001038340236006F08203822BDF
:1008500005D102F210044FF00103834023602F46BC
:10086000FFE7401CD0E717601FFA88F00F463146BB
:10087000164602E00F462946A0B2B0F1FF0F39D963
:10088000331DD3F800800022082A30D202F2080477
:100890004FF0010303FA04F400EA0403A34224D155
:1008A00095004FF00F03AB40DB4308EA030807FA5B
:1008B00005F348EA030801F48173B3F5817F07D19A
:1008C00006F2140502F208044FF00103A3402B6066
:1008D00001F08203822B07D106F2100502F2080410
:1008E0004FF00103A3402B60FFE7521CCCE7331D00
:1008F000C3F80080DDF800E001B0704700FCFFFFA6
:10090000140008000008080081B0ADF8001001468E
:10091000BDF800000B68C3F3C01202B9FAE70A1D64
:10092000106001B07047FFFF81B000F20C0211604F
:1009300000F208021368C3F3000202B9F8E700F2FC
:100940000C02126890B201B07047FFFF81B0CDF881
:1009500000E081B20348FFF7D7FFDDF800E001B007
:10096000704700BF004C004081B0CDF800E0019D11
:100970002C4610B408B493B28AB201460348FFF77C
:10098000A7FD02B0DDF800E001B070470044004070
:1009900081B0CDF800E081B20348FFF7C5FFDDF874
:1009A00000E001B0704700BF0030014081B0CDF8D9
:1009B00000E081B20348FFF7A7FFDDF800E001B0D7
:1009C000704700BF0050004081B0CDF800E081B218
:1009D0000348FFF7A9FFDDF800E001B0704700BF52
:1009E0000038004081B0CDF800E081B20348FFF745
:1009F0008BFFDDF800E001B0704700BF004400400D
:100A000081B0CDF800E081B20348FFF77DFFDDF84B
:100A100000E001B0704700BF0048004081B0CDF851
:100A200000E0019D2C4610B408B493B28AB201468E
:100A30000348FFF74DFD02B0DDF800E001B070475C
:100A40000038014081B0CDF800E081B20348FFF7E3
:100A50006BFFDDF800E001B0704700BF003C0040D4
:100A600081B0CDF800E081B20348FFF74DFFDDF81B
:100A700000E001B0704700BF0038014083B0CDF8FE
:100A800000E08DF8040002910B4C0C4B1C600C4CE8
:100A90000C4B1C60012464B20B4B1C601046FFF72A
:100AA0005FFC029A9DF804100848FFF7EFFCDDF8A0
:100AB00000E003B0704700BF4503000014000020B1
:100AC000450A000018000020BC034242003C0040E0
:100AD00081B0CDF800E0044A89B2FFF71BFEDDF8D3
:100AE00000E001B0704700BF1400080081B0CDF8ED
:100AF00000E04FF0420289B2FFF70CFEDDF800E0A3
:100B000001B0704783B0CDF800E0ADF80810019057
:100B1000BDF80830BDF80820521EADF808204BB1D2
:100B20000020064C2468A047019A1070019A521CBC
:100B30000192EDE7DDF800E003B0704734000020DB
:100B400081B0CDF800E0019D2C4610B408B493B2FA
:100B50008AB201460348FFF7BBFC02B0DDF800E0B3
:100B600001B070470048004001490860704700BF6D
:100B7000A801224201490860704700BFAC0122422F
:100B800001490860704700BFB881224201490860EE
:100B9000704700BF9881214201490860704700BF3B
:100BA000B001224201490860704700BFB081224273
:100BB00001490860704700BF9881224201490860DE
:100BC000704700BFB081224201490860704700BFF2
:100BD0009481224201490860704700BF9C812142F4
:100BE00081B082F000422DE9FA414FEA02244FEA37
:100BF00042052D0E04D1002C18BF4FF000006CE010
:100C000044F00044FF2D5FD04FEA9404002A48BF0F
:100C100064424FEA00214FEA40031B0E05D1002930
:100C200014BF4FF00000104657E041F00041FF2B89
:100C30004BD04FEA9101002848BF49425E1B41BF9B
:100C40000F4621463C46764248BF2B46192E47BFE9
:100C500044FA06F7C9194FF0000803E0C6F11C0773
:100C600004FA07F8002904BF4FF0000035E046BF42
:100C700049424FF001074FF00007A3F1010349007B
:100C8000FBD511F080040DD001F0200548EA0508DD
:100C9000803128BF5B1C01F0400458EA040808BFFB
:100CA00021F480719B1CDCBF4FF0000015E0FF2B8E
:100CB0000DD221F0FF014FEA41014FEA512040EAF5
:100CC000C35040EAC77008E010464FEAD0774FEAB9
:100CD000C777FF204FEAC0503843BDE8FA4101B062
:100CE0007047FFFF81B0FAB590EA02064CBF4FF0A3
:100CF00000464FF000064FEA00214FEA40031B0E6A
:100D000012BF41F000414FF000002CE0FF2B26D035
:100D10004FEA02244FEA42052D0E12BF44F0004470
:100D20004FF000001FE0FF2D19D05B19A1FB045408
:100D3000002C5CBF64005B1E803424BF5B1C640815
:100D40007E3BDCBF4FF000000DE0FF2B07D24FEAE7
:100D5000142030F4000040EAC350304303E0FF2782
:100D6000FF0546EA0700BDE8FA4001B07047FFFF03
:100D700081B010B5904208BF2AE040EA02044FEA71
:100D80004404002C08BF23E0440004D1944201D461
:100D9000A41C012C1CE04FEA40044FEA1464FF2C11
:100DA0000AD14FEA42044FEA1464FF2C04D14FEAFF
:100DB000D274B4EBD0340BE0002A06D4002802DC55
:100DC0000024012C04E0904202E0002848BF824247
:100DD000BDE8104001B0704781B000910146009815
:100DE0000B461C465A1C15460346421C10461A78F0
:100DF000227022780AB12B46F3E7084601B070470B
:100E000081B0FAB590EA02064CBF4FF000464FF0B1
:100E10000006010243001B0E12BF41F000414FF0DB
:100E200000003BE0FF2B35D05FEA02245FEA420579
:100E30005FEA156511BF44F000444FF0FF403043B6
:100E40002CE0FF2D26D05B1B0020202764084908DA
:100E5000A14240EB000028BF091B7F1E04D00029DF
:100E600018BF4900F4D1B84010F0004F04BF400053
:100E7000B3F1010380302CBF5B1C40007F33DCBF2B
:100E80004FF000000AE0FF2B04D2400A40EAC350B2
:100E9000304303E0FF27FF0556EA0700BDE8FA40AC
:100EA00001B0704781B0CDF800E00178CCB2A0B2BB
:100EB000034C2468A0470020DDF800E001B0704733
:100EC0000C00002083B0CDF800E08AB2014690B259
:100ED00083B2421E90B26BB10A78D4B2ADF804006E
:100EE0000291A0B2054C2468A0470299BDF8040005
:100EF000491CEDE7DDF800E003B070472C0000204E
:100F000081B0002808BF0FE002B54FF09E0202D466
:100F1000521E4000FCD580302CBF521C4000400ABD
:100F200040EAC250BDE8024001B0704783B0CDF83E
:100F300000E08DF8080000200B4C2468A04702A9AF
:100F400008460121FFF7BEFF01A908460121FFF76E
:100F5000D9FD0120044C2468A0479DF80400DDF869
:100F600000E003B0704700BF300000200149086076
:100F7000704700BF8C01224281B0CDF800E00949E2
:100F800002B440F2000340F2000240F20001FFF719
:100F9000EBFC01B0044A05490A600020DDF800E0DE
:100FA00001B07047341C0000E50900000C0000206F
:100FB00081B0CDF800E0094902B440F2000340F2EC
:100FC000000240F20001FFF729FD01B0044A054983
:100FD0000A600020DDF800E001B07047A01C0000AE
:100FE000610A00000C000020026803490A60011D2C
:100FF0000A6802490A6070472C0000203400002073
:1010000001490860704700BF9001214200F20801C9
:101010000A6801490A6070473000002081B0CDF8AD
:1010200000E0094902B440F2000340F2000240F23D
:101030000001FFF799FC01B0044A05490A6000204D
:10104000DDF800E001B07047341C0000E509000045
:101050000C00002081B0CDF800E0A9E0012905D105
:1010600040F220016548FFF741FD04E040F2200115
:101070006248FFF72DFDBBE0012905D140F20801D0
:101080005F48FFF733FD04E040F208015C48FFF7DA
:101090001FFDADE0012905D144F200015948FFF7D9
:1010A00025FD04E044F200015648FFF711FD9FE0E2
:1010B000012905D140F200415148FFF717FD04E036
:1010C00040F200414E48FFF703FD91E0012905D1B0
:1010D00040F600014A48FFF709FD04E040F6000130
:1010E0004748FFF7F5FC83E0012905D141F20001F3
:1010F0004348FFF7FBFC04E041F200014048FFF7E2
:10110000E7FC75E0012905D141F200013D48FFF7F8
:10111000EDFC04E041F200013A48FFF7D9FC67E03A
:10112000012905D140F600013648FFF7DFFC04E055
:1011300040F600013348FFF7CBFC59E0012905D107
:1011400040F240012F48FFF7D1FC04E040F240019B
:101150002C48FFF7BDFC4BE0012905D140F22001EE
:101160002848FFF7C3FC04E040F220012548FFF7C0
:10117000AFFC3DE0012905D140F240012248FFF7D4
:10118000B5FC04E040F240011F48FFF7A1FC2FE04E
:10119000012905D140F280011B48FFF7A7FC04E0BC
:1011A00040F280011848FFF793FC21E0012020E085
:1011B00000283FF453AF01283FF45EAF02283FF40C
:1011C00069AF03283FF474AF04283FF47FAF0528CC
:1011D0003FF48AAF06283FF495AF0728A0D008282F
:1011E000ACD00928B8D00A28C4D00B28D0D0DDE76D
:1011F0000020DDF800E001B0704700BF00080140AA
:101200000010014000140140000C014081B0CDF8F5
:1012100000E0A9E0012905D140F210016548FFF77F
:1012200065FC04E040F210016248FFF751FCBBE0AE
:10123000012905D140F204015F48FFF757FC04E0A3
:1012400040F204015C48FFF743FCADE0012905D101
:1012500042F200015948FFF749FC04E042F2000164
:101260005648FFF735FC9FE0012905D140F20041C7
:101270005148FFF73BFC04E040F200414E48FFF7C5
:1012800027FC91E0012905D140F600014A48FFF70B
:101290002DFC04E040F600014748FFF719FC83E00D
:1012A000012905D141F200014348FFF71FFC04E08A
:1012B00041F200014048FFF70BFC75E0012905D120
:1012C00040F201013B48FFF711FC04E040F201014C
:1012D0003848FFF7FDFB67E0012905D140F20041E6
:1012E0003648FFF703FC04E040F200413348FFF7C3
:1012F000EFFB59E0012905D140F200212F48FFF70B
:10130000F5FB04E040F200212C48FFF7E1FB4BE045
:10131000012905D140F200112848FFF7E7FB04E05E
:1013200040F200112548FFF7D3FB3DE0012905D12C
:1013300040F240012248FFF7D9FB04E040F24001AF
:101340001F48FFF7C5FB2FE0012905D140F28001BE
:101350001B48FFF7CBFB04E040F280011848FFF781
:10136000B7FB21E0012020E000283FF453AF012823
:101370003FF45EAF02283FF469AF03283FF474AF37
:1013800004283FF47FAF05283FF48AAF06283FF4D6
:1013900095AF0728A0D00828ACD00928B8D00A28D3
:1013A000C4D00B28D0D0DDE70020DDF800E001B08C
:1013B000704700BF000801400010014000140140C8
:1013C000000C014081B0CDF800E0011D0A68016801
:1013D000C8B21146034AFFF751FB0020DDF800E0D8
:1013E00001B070470C1D000081B0CDF800E0094944
:1013F00002B440F2000340F2000240F20001FFF7A5
:101400009FFB01B0044A05490A600020DDF800E0B6
:1014100001B07047C81B0000010A00000C0000204A
:1014200081B0CDF800E0011D0A680168C8B211461C
:10143000034AFFF723FB0020DDF800E001B070470E
:101440000C1D000001490860704700BF880122425E
:1014500001490860704700BFA48122420149086029
:10146000704700BFA881224201490860704700BF51
:101470008001214201490860704700BFA0812242DB
:1014800001490860704700BF94012142014908608A
:10149000704700BF9C81214201490860704700BF2E
:1014A0009881214201490860704700BFAC01224287
:1014B00001490860704700BFA80122420149086045
:1014C000704700BFB481224201490860704700BFE5
:1014D000B001224282B0CDF800E040F0800301AAC2
:1014E0001370521C11700020074C2468A04701AAF9
:1014F00002211046FFF7E6FC0120034C2468A047B8
:10150000DDF800E002B070473000002081B0CDF877
:1015100000E01FFA80F888B2FFF7F2FC0C4AFFF7F0
:101520006FFC03464FEA580292B290B2FFF7E8FC14
:101530001A46FFF7D7FB4FF08442FFF761FC4FF0EC
:101540008742FFF74DFB0046DDF800E001B0704731
:101550000000C84383B0CDF800E0024610460D22DB
:101560008DF808200A228DF809201FE0FFF79AFC69
:1015700023E002782AB10190FFF794FC0198401C07
:10158000F7E71AE002782AB10190FFF78BFC019887
:10159000401CF7E702AA1046FFF784FC0DF1090290
:1015A0001046FFF77FFC08E0062007E00029DDD0A9
:1015B0000129DED00229E5D0F6E70020DDF800E0C1
:1015C00003B0704782B0CDF800E002460C46002020
:1015D000002149B20192019AB2F1FF3F06D1714A4E
:1015E00011462046FFF7F8FB0320D7E0012501AAAA
:1015F000D21C127802F08002D2B272B101AAD31CBE
:101600001A7882F080021A706A1CD3B22D222270DE
:10161000621C1446DEB2A24601E0A246EEB2019A76
:1016200032B9614A11465046FFF7D6FB0020B5E0BB
:10163000019AB2F1FF4F06D15C4A11465046FFF7BE
:10164000CBFBF0B2AAE05FFA80F94FFA81F8019A79
:101650004FF07E50FFF78CFB40F2000000DD0120D0
:1016600048B1019A5248FFF73DFB0190A8F10108EB
:101670004FFA88F8EBE7019A4D48FFF779FB40F203
:10168000000000DC012048B1019A4A48FFF72AFB1C
:10169000019008F101084FFA88F8ECE7019A52002E
:1016A000019201AAD21C12787F3AD0B201AAD31CAF
:1016B00001221A70019A8240019201AAD21C12786A
:1016C00030328AF800200AF10100B8F1010F06DB80
:1016D000B8F1060F03DC05465FFA89F103E02E221C
:1016E0000270451C012106204FFA88F400B301AABC
:1016F000D31C00221A70019A9300019AD218019209
:10170000019A5200019201AAD21C127830322A703A
:101710006D1C51B9621E52B253B222B92E222A70E8
:101720006D1C0121FFE75CB2FFE7401EC0B2DDE7A0
:10173000294660B24A1E1278302A01D1491EF9E7C3
:101740004A1E12782E2A01D1491EFFE710B36522E6
:101750000A70491C002806DA2D220A70491C4242F0
:1017600050B243B200E043B2D8B2DAB2092A07D984
:101770000A22B0FBF2F2D2B230320A70491CFFE703
:101780000A23B0FBF3F203FB1202D2B230320A702A
:10179000481C00E00846002202700020DDF800E04E
:1017A00002B0704700000020040000200600002066
:1017B00000002041CDCCCC3D81B0CDF800E05FFAF7
:1017C00081F95FFA82FA0FE05FFA8AF15FFA89F035
:1017D000FFF71CFD0DE05FFA8AF15FFA89F0FFF771
:1017E00039FC06E0012004E00028EDD00128F2D009
:1017F000F8E7DDF800E001B07047FFFF81B0CDF8F9
:1018000000E011E00846FFF7EFFD16E00846FFF79D
:1018100005FC12E00846FFF7CBFB0EE00846FFF799
:10182000ABFB0AE0012008E00028EBD00128EDD056
:101830002028EFD03028F1D0F4E7DDF800E001B047
:101840007047FFFF81B0CDF800E003460846FFF780
:10185000CBFB1846FFF7DAFBDDF800E001B070477C
:1018600082B0CDF800E00120FFF760FBC1B20802B2
:1018700081B2ADF804100220FFF758FBBDF8041048
:1018800041EA0000DDF800E002B0704781B0CDF819
:1018900000E08B4609E05846FFF794FD0AE0584601
:1018A000FFF7BEFD06E0012004E00028F3D0012888
:1018B000F5D0F8E7DDF800E001B0704781B01CF822
:1018C000019B0BF8019BBBEB0A0FF8D101B07047ED
:1018D00081B01548006840F00101134801601349C8
:1018E0001348016010480168124801400E48016029
:1018F0000D4801686FF4802001400B4801600C48DE
:1019000001686FF4FE000140094801600648016863
:101910006FF0A0500140044801604FF000010648FC
:10192000016001B0704700BF001002400000FFF0EE
:1019300004100240FFFFF6FE2C10024081B04FF071
:1019400000094FF0000CBDEB0A0F04DCBDEB0B0FE0
:1019500001DBD446EA464BF8049BBBEB0A0FFAD1F5
:10196000BCEB0A0F05DDE246D9F800B00BF1040B21
:10197000F1E701B07047FFFF81B0CDF800E0064904
:101980000648FFF75FFFD0210020FFF7A3FDDDF839
:1019900000E001B0704700BF081E0000781D000085
:1019A0008CB0CDF800E0FFF75BFF40F2D611FFF7F7
:1019B000ADFD01A9FFF706FE0DF1180B0BF1160A9C
:1019C000DFF834C0FFF77AFF06A80121FFF7C2FD58
:1019D00001A80221FFF7BEFD41F6FF27C0F2B707BD
:1019E0007F1EFDD100BF00BF00BF00BF00BFDDF8FC
:1019F00000E00CB0704700BFD81D000002040608CC
:101A000081B0CDF800E0002202210020FFF7D4FED3
:101A10000C4801460020FFF739FF42F28051202098
:101A2000FFF7ECFE44F67F77C0F2120700BF00BF5D
:101A30007F1EFDD100BF00BF00BFDDF800E001B098
:101A4000704700BF101E000081B0024902480160CB
:101A500001B07047401901001000002081B0FEE77E
:101A600001B0704700F00EF800F016FAFFF7ECFF37
:101A700000F0D2F9FFF7C4FFFFF77EFFFFF790FFFA
:101A8000FCE7FEE781B0CDF800E0464A464B474C04
:101A900047494BF68030814206D94648006840F0FD
:101AA00002014448016011E045F6C050814206D968
:101AB0004048006840F001013E48016006E03D48B2
:101AC00001686FF0070001403A480160FFF700FF2E
:101AD0003948036039480460394802EA000139484E
:101AE000016002F0010040B119463648006800F07C
:101AF0000200002800D1F8E700E0194602F4803027
:101B000040B10B462F48006800F40030002800D197
:101B1000F8E700E00B4602F0805068B12948006801
:101B200040F08051274801602648006800F00050CE
:101B3000002800D1F8E7FFE702F0806078B1214883
:101B4000006840F080611F48016011461A461D4838
:101B5000006800F00060002800D1F8E701E01146BD
:101B60001A4601F0807070B11648006840F080712C
:101B70001448016011461348006800F0007000B975
:101B8000F9E70A46FFE70C48006800F00C019000F6
:101B900000F00C00814200D0F5E7DDF800E001B074
:101BA000704700BF8100010502841D00440601004A
:101BB0004019010000200240041002402C10024095
:101BC000FFFF0F0000100240380000003900000045
:101BD000FFFFFFFF00000000000000000000000009
:101BE00000000000000000000000000000000000F5
:101BF00000000000000000000000000018080000C5
:101C000018000000000000000000000000000000BC
:101C100000000000000000000000000000000000C4
:101C200000000000000000000000000000000000B4
:101C3000300014083500000036000000FFFFFFFFF1
:101C40000000000000000000000000000000000094
:101C50000000000000000000000000000000000084
:101C6000000000000000000018080000180000003C
:101C70000000000000000000000000000000000064
:101C80000000000000000000000000000000000054
:101C90000000000000000000000000000800000834
:101CA000090000000A000000FFFFFFFF0000000025
:101CB0000000000000000000000000000000000024
:101CC0000000000000000000000000000000000014
:101CD00000000000180800001800000000000000CC
:101CE00000000000000000000000000000000000F4
:101CF00000000000000000000000000000000000E4
:101D00000000000000000000040000002A000000A5
:101D10002B0000002C000000FFFFFFFF0000000070
:101D200000000000000000000000000000000000B3
:101D300000000000000000000000000000000000A3
:101D40001808000018080000180800000000000033
:101D50000000000000000000000000000000000083
:101D60000000000000000000000000000000000073
:101D700000000000001120080110000045140000C0
:101D8000BD140000B1140000A5140000C914000027
:101D9000691400005D140000511400007514000067
:101DA000991400008D140000FFFFFFFFFFFFFFFFED
:101DB000FFFFFFFFFFFFFFFFFFFFFFFFFFFFFFFF33
:101DC000FFFFFFFFFFFFFFFFFFFFFFFFFFFFFFFF23
:101DD000FFFFFFFFFFFFFFFF43757272656E742008
:101DE00074656D70657261747572653A20000000EB
:101DF00000000102030401020304060708094E6102
:101E00004E003000494E4600450A000045030000E0
:101E1000070000000703000000B5DFF814B0DFF88A
:101E200014A0DFF814C0FFF749FD00BD704700BFE4
:101E3000000000200A000020FE1D0000FFFFFFFF41
:101E4000FFFFFFFFFFFFFFFFFFFFFFFFFFFFFFFFA2
:101E5000FFFFFFFFFFFFFFFFFFFFFFFFFFFFFFFF92
:101E6000FFFFFFFFFFFFFFFFFFFFFFFFFFFFFFFF82
:101E7000FFFFFFFFFFFFFFFFFFFFFFFFFFFFFFFF72
:101E8000FFFFFFFFFFFFFFFFFFFFFFFFFFFFFFFF62
:101E9000FFFFFFFFFFFFFFFF00B5DFF810B0DFF827
:101EA00010A0FFF74BFD00BD704700BF00000020F1
:101EB00038000020FFFFFFFFFFFFFFFFFFFFFFFFD6
:00000001FF
