:02000004000BEF
:10000000FCFF0020E9140B0091140B0091140B006D
:1000100091140B0091140B0091140B0091140B0020
:1000200091140B0091140B0091140B0091140B0010
:1000300091140B0091140B0091140B0091140B0000
:1000400091140B0091140B0091140B0091140B00F0
:1014E800FFF7D6FF00F010F8FFF7E4FF00F062F90D
:1014F80000F05AF800F01EF9FFF742FFFFF792FFDD
:08150800FFF762FFFCE7FEE7BC
:10135C0081B01CF8019B0BF8019BBBEB0A0FF8D179
:04136C0001B0704715
:1014540081B04FF000094FF0000CBDEB0A0F04DC23
:10146400BDEB0B0F01DBD446EA464BF8049BBBEB08
:101474000A0FFAD1BCEB0A0F05DDE246D9F800B039
:0A1484000BF1040BF1E701B0704713
:1013880081B0CDF800E0002202210020FFF75AFECC
:101398000C4801460020FFF7C5FF42F280510120AA
:1013A800FFF7A8FF46F6FE17C0F2180700BF00BFF8
:1013B8007F1EFDD100BF00BF00BFDDF800E001B017
:0813C800704700BF1C170B0069
:10104C0081B0CDF800E05FFA81F95FFA82FA0FE027
:10105C005FFA8AF15FFA89F0FFF726FE0DE05FFA7E
:10106C008AF15FFA89F0FFF73DFD06E0012004E00C
:10107C000028EDD00128F2D0F8E7DDF800E001B04F
:02108C007047AB
:100CB40081B0CDF800E0A9E0012905D140F201019D
:100CC4006548FFF7AFFD04E040F201016248FFF719
:100CD4009BFDBBE0012905D140F220015F48FFF7ED
:100CE400A1FD04E040F220015C48FFF78DFDADE07A
:100CF400012905D140F208015948FFF793FD04E0AA
:100D040040F208015648FFF77FFD9FE0012905D115
:100D140040F210015348FFF785FD04E040F2100152
:100D24005048FFF771FD91E0012905D140F24001DF
:100D34004C48FFF777FD04E040F240014948FFF7D3
:100D440063FD83E0012905D140F210014448FFF717
:100D540069FD04E040F210014148FFF755FD75E0DC
:100D6400012905D140F210013F48FFF75BFD04E083
:100D740040F210013C48FFF747FD67E0012905D127
:100D840040F201013748FFF74DFD04E040F2010154
:100D94003448FFF739FD59E0012905D140F220011B
:100DA4003248FFF73FFD04E040F220012F48FFF7EF
:100DB4002BFD4BE0012905D140F210012B48FFF730
:100DC40031FD04E040F210012848FFF71DFD3DE02D
:100DD400012905D140F201012548FFF723FD04E074
:100DE40040F201012248FFF70FFD2FE0012905D150
:100DF40040F280011A48FFF715FD04E040F280013B
:100E04001748FFF701FD21E0012020E000283FF40E
:100E140053AF01283FF45EAF02283FF469AF0328C3
:100E24003FF474AF04283FF47FAF05283FF48AAF42
:100E340006283FF495AF0728A0D00828ACD009288D
:100E4400B8D00A28C4D00B28D0D0DDE70020DDF8C4
:100E540000E001B0704700BF001208408010084055
:100E6400001008406010084060110840001108405C
:040E74002010084002
:1008280081B0CDF800E0044AC9B2FFF773FEDDF8E5
:0C08380000E001B0704700BF0004100099
:10051C0081B01446314B984203D8314B984200D3EA
:10052C0000E058E02E4BC31A03F01F0303B152E056
:10053C00064600F5A0624FF6FF7304EA0303184663
:10054C00284B04EA03031B0C40F20008CFB201460F
:10055C001846B8F1080F3ED201231BB203FA08F378
:10056C001BB21CB207EA0403A34231D101F440537D
:10057C008BB14FEA8803F5182C686FF4405304EAEA
:10058C0003032B604FEA8803F51801F440542B68E1
:10059C0023432B601CE04FEA8803F5182C68114BA1
:1005AC0004EA03032B604FEA8803F41823680B4317
:1005BC0023604FEA8803D5182C686FF0FF0304EA18
:1005CC0003032B604FEA8803D4182368034323608A
:1005DC0008F10108BDE701B0704700BFC012084028
:0805EC00001008400000FFFFB1
:10080C0081B0CDF800E0044AC9B2FFF781FEDDF8F3
:0C081C0000E001B0704700BF00062000A3
:100AF00081B0CDF800E0A9E0012905D140F2020162
:100B00006548FFF791FE04E040F202016248FFF7FA
:100B10007DFEBBE0012905D140F220015F48FFF7CF
:100B200083FE04E040F220015C48FFF76FFEADE079
:100B3000012905D140F208015948FFF775FE04E08C
:100B400040F208015648FFF761FE9FE0012905D1F8
:100B500040F210015348FFF767FE04E040F2100135
:100B60005048FFF753FE91E0012905D140F24001C2
:100B70004C48FFF759FE04E040F240014948FFF7B6
:100B800045FE83E0012905D140F210014448FFF7FA
:100B90004BFE04E040F210014148FFF737FE75E0DC
:100BA000012905D140F204013D48FFF73DFE04E074
:100BB00040F204013A48FFF729FE67E0012905D118
:100BC00040F204013848FFF72FFE04E040F2040130
:100BD0003548FFF71BFE59E0012905D140F22001FD
:100BE0003248FFF721FE04E040F220012F48FFF7D2
:100BF0000DFE4BE0012905D140F210012B48FFF713
:100C000013FE04E040F210012848FFF7FFFD3DE02D
:100C1000012905D140F201012548FFF705FE04E056
:100C200040F201012248FFF7F1FD2FE0012905D133
:100C300040F280011A48FFF7F7FD04E040F280011E
:100C40001748FFF7E3FD21E0012020E000283FF4F2
:100C500053AF01283FF45EAF02283FF469AF032889
:100C60003FF474AF04283FF47FAF05283FF48AAF08
:100C700006283FF495AF0728A0D00828ACD0092853
:100C8000B8D00A28C4D00B28D0D0DDE70020DDF88A
:100C900000E001B0704700BF00120840801008401B
:100CA0000010084060100840201108400011084062
:040CB00020100840C8
:10132C0081B0CDF800E009E00846FFF7B3FD0AE014
:10133C000846FFF79BFD06E0012004E00028F3D0EF
:0E134C000128F5D0F8E7DDF800E001B07047A9
:100EA00081B0CDF800E000F208010B68011D0A686E
:100EB0000168084691B2DAB2FFF7BEFB0020DDF808
:060EC00000E001B07047E4
:1006380081B0CDF800E0064C064B1C60064C074B19
:100648001C60FFF709FFDDF800E001B0704700BF4C
:1006580025060B001000002081080B001400002064
:1004600082B0CDF800E08346D0B21FFA81FC8DF84F
:1004700004002348FFF7CEFF9DF80400214B1B68C2
:1004800043EA00041F4B1C601E4B1868BCF1000FB0
:1004900008D01D4B1B6843F001041B4B1C601A4B1A
:1004A000186805E0184B1B6803F0FE04164B1C602F
:1004B0001648B0FBFBF080280BD2002809D9114B5D
:1004C0001B6803F0EF040F4B1C604408104B1C60CA
:1004D0000CE0104BB3FBFBF00A4B1B6843F010041D
:1004E000084B1C6043081846094B18600A4B1B68F0
:1004F00043F00104084B1C60DDF800E002B07047D7
:10050000D4150B001494004004940040006CDC02ED
:0C0510001894004080841E0000940040FD
:1004140081B0CDF800E040F2000A81464FEA8A013B
:1004240009EB01010968B1F1FF3F12D009F1340170
:100434004FEA8A03C91809680A4609EB03010968E7
:1004440008461146FFF7ACFF0AF1010A1FFA8AFABF
:0A045400E4E7DDF800E001B07047B6
:1003A40082B0CDF800E000F0FF02130902F00F0262
:1003B4001446D8B2FFF778FF012212B2A240ADF87A
:1003C400042000460A469DF8041000F0A5F8DDF864
:0603D40000E002B07047DA
:1002AC0081B027E028484DE028484BE0284849E039
:1002BC00284847E0284845E0284843E0284841E0E2
:1002CC0028483FE028483DE028483BE0284839E0F2
:1002DC00284837E0284835E0284833E0284831E002
:1002EC0028482FE028482DE028482BE0284829E012
:1002FC00284827E00028D5D00128D5D00228D5D011
:10030C000328D5D00428D5D00528D5D00628D5D09B
:10031C000728D5D00828D5D00928D5D00A28D5D07B
:10032C000B28D5D00C28D5D00D28D5D00E28D5D05B
:10033C000F28D5D01028D5D01128D5D01228D5D03B
:10034C001328D5D001B07047001008402010084089
:10035C00401008406010084080100840A010084071
:10036C00C0100840E010084000110840201108405F
:10037C00401108406011084080110840A01108404D
:10038C00C0110840E011084000120840201208403B
:08039C00401208406012084005
:100E780081B0CDF800E000F208010B68011D0A6896
:100E88000168084691B2DAB2FFF7D2FB0020DDF81C
:060E980000E001B070470C
:1012FC0081B0CDF800E009E00846FFF7CBFB0AE02F
:10130C000846FFF7B3FB06E0012004E00028F3D009
:0E131C000128F5D0F8E7DDF800E001B07047D9
:100AA00081B0CDF800E0002300220321FFF7E8FD2C
:100AB000034A04490A600020DDF800E001B07047F5
:080AC000610F0B000C00002087
:1006800084B0CDF800E01FFA82FB1FFA83FC002241
:100690008DF80420ADF8081003904A48FFF7BAFE21
:1006A0000398BDF808109DF80420ADF804100290DE
:1006B000FFF7ACFF0298BDF804100025424C2570EE
:1006C0000025424C2570B0F5E13F06D9404CA042D0
:1006D00003D83F4CB4FBF0F308E0B0F5E13F04D899
:1006E0004FF4E134B4FBF0F300E00123ADF8041063
:1006F0000290FFF77FFF0298BDF8041003F0FF049B
:10070000E5B2344C25701C0A04F07F04E5B2324C8B
:100710002570B0F5E13F06D92F4C247844F08005D0
:100720002D4C257005E02C4C247804F07F052A4CD4
:100730002570ADF80410FFF769FFBDF8041000251F
:10074000264C25700BE042F00100C0B20EE042F0F2
:100750000200C0B20AE042F00300C0B206E0012984
:10076000F1D00229F3D00329F5D0F4E74FEA8C0445
:10077000A4B240EA04044FEACB05ADB2E4B22C4384
:10078000E4B204F07F05154C25700025144C25704B
:100790000025144C2570144D144C2560144D154C37
:1007A0002560154D154C2560154D164C2560164CD1
:1007B000247844F00105144C2570DDF800E004B005
:1007C000704700BF3C160B00F0270F4001240F407C
:1007D00060E3160000240F4001240F4003240F4063
:1007E00004240F4002240F40FFFFFFFF20000020E1
:1007F000610F0B0024000020FFFFFFFF28000020F6
:0C080000FFFFFFFF2C00002030270F40FE
:10060C0081B00448007800F07F010248017001B00D
:08061C00704700BF03240F40EA
:1005F40081B00448007840F080010248017001B0E5
:08060400704700BF03240F4002
:100A780081B0CDF800E0002300220321FFF7FCFD40
:100A8800034A04490A600020DDF800E001B070471D
:080A9800610F0B000C000020AF
:10142C0081B0CDF800E006490648FFF753FFD02104
:10143C000020FFF733FFDDF800E001B0704700BF7C
:08144C0034170B00A4160B007D
:1012E00081B0CDF800E003460846FFF7F5FB18464D
:0C12F000FFF7EAFBDDF800E001B07047FA
:100AD800026803490A60011D0A6802490A607047F2
:080AE800300000203400002062
:100AC80000F208010A6801490A60704738000020EE
:1012A80082B0CDF800E040F0800301AA1370521C10
:1012B80011700020074C2468A04701AA022110469B
:1012C800FFF73CFB0120034C2468A047DDF800E051
:0812D80002B07047380000204D
:100F600082B0CDF800E08DF80400FFF74FFB084990
:100F7000097801F02001C9B201B9F8E79DF8041021
:100F800001F0FF0203490A70DDF800E002B070478B
:080F900005240F4000240F406E
:100F280082B0CDF800E08DF80400FFF799FB08497E
:100F3800097801F02001C9B201B9F8E79DF8041059
:100F480001F0FF0203490A70DDF800E002B07047C3
:080F580005280F4000280F409E
:1006680081B00448007800F07F010248017001B0B1
:08067800704700BF03280F408A
:100F1800024A117860F3000111707047901308407D
:100ED800024A117860F34511117070478413084075
:100EC800024A117860F3C30111707047801308401B
:100EE800024A117860F304111170704783130840A7
:100F0800024A117860F38611117070478313084004
:100EF800024A117860F3041111707047801308409A
:1008B400024A117860F30411117070478B130840D9
:10089400024A117860F30001117070478313084015
:10092400024A117860F3451111707047881308402A
:1008E400024A117860F304111170704788130840AC
:1008F400024A117860F300011170704781130840B7
:10090400024A117860F3C7111170704780130840D0
:10091400024A117860F34101117070479013084046
:1008D400024A117860F3C7111170704784130840FD
:1008C400024A117860F34511117070478E13084085
:1008A400024A117860F304111170704783130840F1
:10093400024A117860F386111170704783130840DE
:100A3800024A117860F3041111707047801308405E
:100A2800024A117860F38201117070478013084000
:100A4800024A117860F382011170704789130840D7
:100A6800024A117860F345111170704788130840E5
:100A5800024A117860F30411117070478813084036
:100A1800024A117860F30001117070478113084091
:10098000024A117860F3C711117070478013084054
:1009440083B0CDF800E08AB2014690B283B2421E71
:1009540090B26BB10A78D4B2ADF804000291A0B29F
:10096400054C2468A0470299BDF80400491CEDE732
:0C097400DDF800E003B070473000002008
:1008800081B0CDF800E0FFF7CDFEDDF800E001B06B
:020890007047AF
:1006240081B0CDF800E0FFF7D7FEDDF800E001B0BF
:0206340070470D
:1003DC0081B00A49096801F004010849096801F073
:1003EC000201074908600549096801F0020101B9D9
:1003FC00F9E70449086801B0704700BF0894004051
:08040C000C9400401094004024
:1013D0008CB0CDF800E0FFF751FF40F2D611FFF7D7
:1013E000DBFD01A8FFF754FE0DF1180B0BF1160AF7
:1013F000DFF834C0FFF7B2FF06A80121FFF7EEFDCA
:1014000001A80221FFF7EAFD42F2FE37C0F2F4071D
:1014100000BF00BF7F1EFDD100BF00BF00BFDDF8D1
:0C14200000E00CB0704700BF04170B0088
:10127C0082B0CDF800E00120FFF784FBC1B2080278
:10128C0081B2ADF804100220FFF77CFBBDF804100E
:0C129C0041EA0000DDF800E002B07047FD
:1009900083B0CDF800E08DF8080000200B4C2468EF
:1009A000A04702A908460121FFF7CCFF01A908468C
:1009B0000121FFF747FF0120044C2468A0479DF860
:1009C0000400DDF800E003B0704700BF38000020ED
:1008440083B0CDF800E0ADF808100190BDF8083091
:10085400BDF80820521EADF808204BB10020064C0C
:100864002468A047019A1070019A521C0192EDE786
:0C087400DDF800E003B070473400002005
:100F980000EE901AF8EE600A0D4A00EE102AC0EE34
:100FA800800A420892B200EE102AB8EE400A60EEBB
:100FB800200A4FF0844200EE102AC0EE800A4FF05B
:100FC800874200EE102A30EEC00AB0EE400A7047A1
:040FD8000000C8430A
:1010900083B0CDF800E00446002000235BB28DED64
:1010A000020A0299B1F1FF3F05D170492046FFF7CE
:1010B0009FFC0320D5E0012502A9C91C097801F095
:1010C0008001C9B269B102A9CA1C117881F08001FE
:1010D0001170691CCAB22D212170641CD7B226463A
:1010E00001E02646EFB2029929B961493046FFF77F
:1010F0007FFC0020B5E00299B1F1FF4F05D15D49B9
:101100003046FFF775FCF8B2ABE08DF80430C3B29F
:1011100034469DF90400DDED020AB7EE000AF4EE54
:10112000C00AF1EE10FA0ADADDED020AB2EE040AA4
:1011300020EE800A8DED020A401E40B2EBE7DDEDA5
:10114000020AB2EE040AF4EEC00AF1EE10FA0BDB6A
:10115000DDED020A484900EE101A20EE800A8DEDFE
:10116000020A401C40B2EAE702994900029102A932
:10117000C91C09787F39CDB202A9CA1C012111709E
:101180000299A940029102A9C91C09783031217045
:10119000621C012803DB062801DC154603E02E2132
:1011A0001170551C0123062144B2C8B210B302A924
:1011B000CA1C0021117002998A00029989180291B3
:1011C00002994900029102A9C91C0978303129709D
:1011D0006D1C63B9611E49B24AB221B92E21297032
:1011E0006D1C012100E0D9B254B2CBB2FFE7401E22
:1011F000C0B2DBE72A4660B2511E0978302901D11E
:10120000521EF9E7511E09782E2901D1521EFFE71F
:1012100018B365211170521C002806DA2D211170B7
:10122000521C414248B243B200E043B2D8B2D9B2F4
:10123000092907D90A21B0FBF1F1C9B23031117087
:10124000531C00E013460A22B0FBF2F102FB11012D
:10125000C9B230311970581C00E0104600210170ED
:101260000020DDF800E003B0704700BF0000002060
:0C1270000400002006000020CDCCCC3D86
:1009F00081B00091014600980B461C465A1C1546D2
:100A00000346421C10461A78227022780AB12B46FF
:080A1000F3E7084601B070474E
:100FDC0083B0CDF800E0024610460D228DF80820B3
:100FEC000A228DF809201FE0FFF7ECFC23E00278C1
:100FFC002AB10190FFF7E6FC0198401CF7E71AE0D4
:10100C0002782AB10190FFF7DDFC0198401CF7E74C
:10101C0002AA1046FFF7D6FC0DF109021046FFF7A5
:10102C00D1FC08E0062007E00029DDD00129DED044
:10103C000229E5D0F6E70020DDF800E003B07047A8
:1009D00081B0CDF800E00178CCB2E0B2034C2468DD
:1009E000A0470020DDF800E001B070470C000020B7
:1015100081B0CDF800E01F4B1F4A204C20480068E6
:1015200040F002011E480160012A08D0032A06D0BB
:10153000042A04D0102A02D0302A00D002E0194830
:10154000026002E0012117480160C4F3C00216499D
:10155000086862F3C3000860C4F380021249086897
:1015600062F382000860C4F340020F49086862F326
:1015700041000860C4F300020B49086862F30000F0
:101580000860FFF7F5FE09480360DDF800E001B0F0
:10159000704700BFE00100000100000000000000F3
:1015A00008E000E00401084008A4004008010840E9
:1013700046F6FE17C0F2180700BF00BF7F1EFDD162
:0813800000BF00BF00BF704771
:1015B00081B004490448016004490548016001B054
:1015C000704700BF80BB0000180000200000000032
:0415D0001C000020DB
:0814900081B0FEE701B07047D6
:1014BC0081B04EF68850CEF20000016841F4700104
:1014CC00016000BF00BF00BF00BFF1EE100A40F486
:0A14DC004000E1EE100A01B0704775
:1014980081B0DFF81000DFF810100860D0F800D035
:1014A80000F004B800000B0008ED00E000BF01B038
:0214B80070477B
:10173C0000B5DFF814B0DFF814A0DFF814C0FFF721
:10174C0007FE00BD704700BF000000200A0000200B
:04175C0028170B003F
:1017BC0000B5DFF810B0DFF810A0FFF745FE00BD54
:0C17CC00704700BF000000203C0000201F
:1015D400340000003600000004000000FFFFFFFF9D
:1015E40000000000000000000000000000000000F7
:1015F40000000000000000000000000000000000E7
:101604000000000000200000002000000020000076
:1016140000000000000000000000000000000000C6
:1016240000000000000000000000000000000000B6
:081634000000000000000000AE
:10163C008500000084000000FFFFFFFF0000000099
:10164C00000000000000000000000000000000008E
:10165C00000000000000000000000000000000007E
:10166C00000000000010000000100000000000004E
:10167C00000000000000000000000000000000005E
:10168C00000000000000000000000000000000004E
:08169C00000000000000000046
:1016A400190F0B00D90E0B00C90E0B00E90E0B002D
:1016B400090F0B00F90E0B00B5080B0095080B0081
:1016C40025090B00E5080B00F5080B0005090B00C4
:1016D400FFFFFFFFFFFFFFFFFFFFFFFFFFFFFFFF16
:1016E400FFFFFFFFFFFFFFFFFFFFFFFFFFFFFFFF06
:1016F400FFFFFFFFFFFFFFFFFFFFFFFFFFFFFFFFF6
:1017040043757272656E742074656D706572617470
:061714007572653A200029
:0C171C0040420F0000000000030000002D
:041728004E614E00C0
:02172C0030008B
:04172E00494E4600DA
:0817340081080B0025060B00E3
:00000001FF
