:1000000053EF11F00000000000EF00F000000000CE
:0A0010000000000000000000F3D71C
:0E001C0000019FB102D08B9401D08B841200A2
:0E002A0000019FB102D08B9A01D08B8A120088
:0E00380000019FB102D08B9E01D08B8E120072
:0E00460000019FB102D08A9201D08A8212007E
:0E00540000019FB102D08D9201D08D8212006A
:0E00620000019FB102D0899801D08988120058
:0E00700000019FB102D08B9801D08B88120046
:0E007E0000019FB102D08B9601D08B8612003C
:0E008C0000019FB102D08D9401D08D8412002E
:0E009A0000019FB102D08D9601D08D8612001C
:0E00A80000019FB102D08B9801D08B8812000E
:0E00B60000019FB102D08B9601D08B86120004
:0E00C40000019FB102D08B9601D08B861200F6
:0E00D20000019FB102D08B9C01D08B8C1200DC
:0E00E00000019FB102D0899401D089841200E2
:0E00EE0000019FB102D08B9801D08B881200C8
:0E00FC0000019FB102D0899201D089821200CA
:0E010A0000019FB102D08B9001D08B801200BB
:0E01180000019FB102D0899001D089801200B1
:0E01260000019FB102D08B9601D08B86120093
:0E01340000019FB102D08D9001D08D8012008D
:100142009FC06AFF016A0150000A05E1000E68B013
:0C015200010E016EF8D76ACF01F0120018
:10015E009FC0C9FF016A0150000A05E1000EC7B039
:0C016E00010E016EF8D7C9CF01F012009D
:10017A000F0121B302D00000FBD79FC01CFF120061
:0E018A00ACB202D00000FCD79FC0ADFF120047
:0E01980000019FB102D08B9C01D08B8C120015
:0E01A60000019FB102D08B9E01D08B8E120003
:0E01B40000019FB102D08B9801D08B88120001
:0E01C20000019FB102D08B9601D08B861200F7
:0E01D00000019FB102D08B9A01D08B8A1200E1
:0E01DE0000019FB102D08B9801D08B881200D7
:0E01EC0000019FB102D08A9001D08A801200DB
:0E01FA0000019FB102D08B9201D08B821200C7
:0E02080000019FB102D08F9201D08F821200B0
:0E02160000019FB102D08B9601D08B861200A2
:0E02240000019FB102D08B9801D08B88120090
:0E02320000019FB102D08F9401D08F84120082
:0E02400000019FB102D08B9A01D08B8A120070
:0E024E0000019FB102D08F9001D08F8012006E
:0E025C0000019FB102D08A9401D08A84120062
:10026A00F250026EF29E0500FF6A0150FE6E0050C7
:08027A00FD6E02BEF28E1200BF
:100282001FC09BF020C09CF021C09DF022C09EF0B8
:10029200A19A6686A1BA1FD01F50201021102210E9
:1002A20019E000019B519C119D119E110CE129C086
:1002B200E1FF2AC0E2FF030EE66E27C000F028C06D
:1002C20001F0D2DF08D0010E00019B5F000E9C5BA3
:1002D2009D5B9E5BDFD700016ACF9AF09951000ABD
:1002E20002E1668A01D0669AA19A66881FC09BF0D5
:1002F20020C09CF021C09DF022C09EF0A1BA1FD068
:100302001F5020102110221019E000019B519C1156
:100312009D119E110CE129C0E1FF2AC0E2FF030EEC
:10032200E66E27C000F028C001F09EDF08D0010E63
:1003320000019B5F000E9C5B9D5B9E5BDFD79AC0BA
:0403420000F01200B5
:100346009E9699C0C9FF15C09AF016C09BF017C0BB
:100356009CF018C09DF0C7A421D015501610171098
:1003660018101BE000019A519B119C119D110EE182
:1003760035C0E1FF36C0E2FF040EE66E33C000F082
:1003860034C001F06FDF010E006E3AD0010E00019D
:100396009A5F000E9B5B9C5B9D5BDDD715C09AF058
:1003A60016C09BF017C09CF018C09DF09EB621D0D9
:1003B60015501610171018101BE000019A519B11CA
:1003C6009C119D110EE135C0E1FF36C0E2FF040E1F
:1003D600E66E33C000F034C001F044DF010E006E5B
:1003E6000FD0010E00019A5F000E9B5B9C5B9D5B2C
:1003F600DDD7C5BC02D0006A03D0C584020E006EEC
:020406001200E2
:100408000B840BAE0FEF02F0010E036E026A016A55
:0A041800006A0A360232FF0E1200DD
:1004220099C06AFF016A0150000A05E1000E68B036
:0C043200010E016EF8D76ACF00F0120036
:10043E0099C0C9FF016A0150000A05E1000EC7B05C
:0C044E00010E016EF8D7C9CF00F01200BB
:10045A00A19A99C06AFF1FC09AF020C09BF021C0E0
:10046A009CF022C09DF068A421D01F5020102110BA
:10047A0022101BE000019A519B119C119D110EE163
:10048A0029C0E1FF2AC0E2FF040EE66E27C000F091
:10049A0028C001F0E5DE010E006E3AD0010E00011F
:1004AA009A5F000E9B5B9C5B9D5BDDD71FC09AF039
:1004BA0020C09BF021C09CF022C09DF0A1BA21D09F
:1004CA001F502010211022101BE000019A519B118D
:1004DA009C119D110EE129C0E1FF2AC0E2FF040E22
:1004EA00E66E27C000F028C001F0BADE010E006EE9
:1004FA000FD0010E00019A5F000E9B5B9C5B9D5B17
:10050A00DDD766BC02D0006A03D06684020E006E94
:02051A001200CD
:0E051C00026A016A006A086A036A000E120091
:10052A0015C09BF016C09CF017C09DF018C09EF035
:10053A009E96C5869EB61FD0155016101710181015
:10054A0019E000019B519C119D119E110CE135C0CF
:10055A00E1FF36C0E2FF030EE66E33C000F034C09E
:10056A0001F07EDE08D0010E00019B5F000E9C5B4D
:10057A009D5B9E5BDFD70001C9CF9AF09951000AB3
:10058A0002E1C58A01D0C59A9E96C58815C09BF01E
:10059A0016C09CF017C09DF018C09EF09EB61FD0E2
:1005AA00155016101710181019E000019B519C11D4
:1005BA009D119E110CE135C0E1FF36C0E2FF030E2A
:1005CA00E66E33C000F034C001F04ADE08D0010EF6
:1005DA0000019B5F000E9C5B9D5B9E5BDFD79AC010
:0405EA0000F012000B
:0805EE000AAE029E000E12008D
:1005F6000B820BAE05EF03F0036802680168006822
:080606000A360232FF0E120059
:10060E000CB049EF03F00CA2EFEF03F00E6A000EF0
:10061E00026460EF03F0F00E0214D8A42BEF03F087
:10062E00023A01380F0B02260138F00B016E00382A
:10063E000F0B01260038F00B006E08380F0B00264A
:10064E000838F00B086E0E84D89002BE44EF03F00B
:10065E0008360036013602360E2A02BE44EF03F08B
:10066E0008360036013602360E2A02BE44EF03F07B
:10067E0008360036013602360E2A0E500364E5EFB8
:10068E0003F0035E0BBC08AEEAEF03F0D880800ED9
:10069E0008640030000E002201220222D8A0EAEFE8
:1006AE0003F0023201320032034AEFEF03F0EAEFB9
:1006BE0003F001C002F000C001F008C000F0086AAB
:1006CE00000E0E86026497EF03F0F00E0214D8A40B
:1006DE007FEF03F0023A01380F0B02260138F00BC0
:1006EE00016E00380F0B01260038F00B006E0E84E1
:1006FE00D89002BE44EF03F00036013602360E2AC1
:10070E0002BE44EF03F00036013602360E2A02BE58
:10071E0044EF03F00036013602360E2A44EF03F0A2
:10072E0001C002F000C001F0006A000E0E960E88A5
:10073E000264C4EF03F0F00E0214D8A4AFEF03F07E
:10074E00023A01380F0B02260138F00B016E0E84AF
:10075E00D89002BE44EF03F0013602360E2A02BED6
:10076E0044EF03F0013602360E2A02BE44EF03F0C8
:10077E00013602360E2A44EF03F001C002F0016A80
:10078E00000E0E860264F4EF03F0F00E0214D8A4ED
:10079E00D3EF03F0023A0E84D89002BE44EF03F07A
:1007AE0002360E2A02BE44EF03F002360E2A02BEB5
:1007BE0044EF03F002360E2A44EF03F0010E0C6EE6
:1007CE001CDEF7EF03F0020E0C6E0ADFF7EF03F0FC
:1007DE00040E0C6E09DFF7EF03F0080E0C6E97DEB9
:0207EE001200F7
:1007F0003E0E2F6E040E306E990E316E000E326E6C
:100800005E0E2B6E010E2C6E9F0E2D6E000E2E6E48
:10081000949A00019351040A02E1948601D09496BF
:100820009488C66AC79CC79E9351C6129551C6123A
:100830009451C712955305E09651000AD8B4C78C5D
:0C08400003D09653D8A4C78CC68A1200BF
:10084C008A0E536E010E546E9F0E556E000E566E30
:10085C00FF0E3B6EFF0E3C6E000E3D6E000E3E6EAC
:10086C00FF0E436EFF0E446E000E456E000E466E7C
:10087C00FF0E476EFF0E486E000E496E000E4A6E5C
:10088C00AC8A900EAB6E948E949C9EAA03D0AECF85
:06089C0000F0FBD7120082
:1008A2000C6A0E6A0250D8A46AEF04F001C002F08A
:1008B20000C001F0006A0E860250D8A46AEF04F06C
:1008C20001C002F0016A0E960E880250D8B47CEF85
:1008D20004F00E50035ED8A4D8A081EF04F0D890A3
:1008E20002BE86EF04F0003601360236032E71EFA7
:1008F20004F081EF04F0010E0C6E0FDE89EF04F0BC
:10090200020E0C6E80DD89EF04F0040E0C6E6EDEBA
:020912001200D1
:080914000B6A0B86FF0E1200B6
:10091C0093C097F094C098F095C000F096C001F089
:10092C00010E0001955F000E965B0050011013E064
:10093C0039C0E1FF3AC0E2FF97C0E9FF98C0EAFF77
:10094C00EECFE6FF37C000F038C001F088DC0001C4
:08095C00974B982BE1D7120024
:1009640093C097F094C098F095C000F096C001F041
:10097400010E0001955F000E965B0050011014E01B
:100984004DC0E1FF4EC0E2FFE66A4BC000F04CC030
:1009940001F069DC97C0E1FF98C0E2FF00C0E6FF08
:0A09A4000001974B982BE0D71200DA
:1009AE00025006180E6E086A096A0B6A0350076435
:1009BE00CAEF05F006500A6E068E028E03500B6EBD
:1009CE000750036E000E0B641AEF05F00B50075E16
:1009DE00D8B4BBEF05F0070E076489EF05F0075E8C
:1009EE0000C008F001C000F002C001F0026A074E1C
:1009FE00BBEF05F007645EEF05F0075E00C008F080
:100A0E0001C000F0016A074EBBEF05F007643CEF32
:100A1E0005F0075E00C008F0006A074EBBEF05F058
:100A2E00076423EF05F00AC002F005C001F004C010
:100A3E0000F0086AE4EF06F0030E07642EEF05F0EF
:100A4E00075E08380F0B086E074EBBEF05F0D89007
:100A5E000832074EBBEF05F0D8900832074EBBEFB9
:100A6E0005F0D8900832BBEF05F0030E07644DEF8A
:100A7E0005F0075E08380F0B086E0038F00B0826DD
:100A8E0000380F0B006E074EBBEF05F0D89000320A
:100A9E000832074EBBEF05F0D89000320832074EF1
:100AAE00BBEF05F0D89000320832BBEF05F0030E15
:100ABE00076475EF05F0075E08380F0B086E0038F7
:100ACE00F00B082600380F0B006E0138F00B0026D5
:100ADE0001380F0B016E074EBBEF05F0D8900132B7
:100AEE0000320832074EBBEF05F0D89001320032CB
:100AFE000832074EBBEF05F0D890013200320832B3
:100B0E00BBEF05F0030E0764A6EF05F0075E08388D
:100B1E000F0B086E0038F00B082600380F0B006E16
:100B2E000138F00B002601380F0B016E0238F00B66
:100B3E00012602380F0B026E074EBBEF05F0D89060
:100B4E000232013200320832074EBBEF05F0D89068
:100B5E000232013200320832074EBBEF05F0D89058
:100B6E000232013200320832096A000E0EAEAFEFC9
:100B7E0006F0081E001E011E021E082A0022012277
:100B8E000222AFEF06F00750D8A4D0EF05F0E4EF45
:100B9E0006F0096A02C00AF0028E068E0750035C48
:100BAE00076ED8B4A2EF06F0070E076470EF06F0DA
:100BBE00075E0450096E0550046E0650056E066AF7
:100BCE00074EA2EF06F0070E076445EF06F0075E2C
:100BDE000450096E0550046E056A074EA2EF06F02A
:100BEE00070E076423EF06F0075E0450096E046AD1
:100BFE00074EA2EF06F0070E07640AEF06F00AC0D2
:100C0E0002F0E4EF06F0030E076415EF06F0075E40
:100C1E0009380F0B096E074EA2EF06F0D890093275
:100C2E00074EA2EF06F0D8900932074EA2EF06F05B
:100C3E00D8900932A2EF06F0030E076434EF06F0E7
:100C4E00075E09380F0B096E0438F00B09260438BD
:100C5E000F0B046E074EA2EF06F0D8900432093245
:100C6E00074EA2EF06F0D89004320932074EA2EFDB
:100C7E0006F0D89004320932A2EF06F0030E076494
:100C8E005CEF06F0075E09380F0B096E0438F00BA7
:100C9E00092604380F0B046E0538F00B04260538B0
:100CAE000F0B056E074EA2EF06F0D89005320432F8
:100CBE000932074EA2EF06F0D890053204320932FF
:100CCE00074EA2EF06F0D890053204320932A2EF99
:100CDE0006F0030E07648DEF06F0075E09380F0B62
:100CEE00096E0438F00B092604380F0B046E053814
:100CFE00F00B042605380F0B056E0638F00B052693
:100D0E0006380F0B066E074EA2EF06F0D89006328D
:100D1E00053204320932074EA2EF06F0D8900632A1
:100D2E00053204320932074EA2EF06F0D890063291
:100D3E00053204320932086A000E0EAEAFEF06F02D
:100D4E00091E041E051E061E092A0422052206225D
:100D5E000950082604500022055001220650022296
:100D6E000EBEC6EF06F0D8A0D5EF06F00232013265
:100D7E0000320832033ED5EF06F0DFEF06F0D8B0B2
:100D8E00DAEF06F0000E081E001E011E021E082AD3
:100D9E000022012202220A7EDAEF06F0010E0C6E0C
:100DAE002FDCE6EF06F0020E0C6E2ADCE6EF06F004
:100DBE00040E0C6E19DCE6EF06F0000E0C6E12003F
:100DCE008FC0F6FF90C0F7FF91C0F8FF0900F5CF76
:100DDE0093F0040E00018F25F66E000E9021F76E33
:100DEE00000E9121F86E0900F5CF94F0080E8F25B4
:100DFE00F66E000E9021F76E000E9121F86E09002E
:100E0E00F5CF95F00C0E8F25F66E000E9021F76E35
:100E1E00000E9121F86E0900F5CF96F0E2DC000E7F
:040E2E00006E120040
:100E320021D0CF0EAF6EAC9408DD6BD0670EAF6ED3
:100E4200AC9403DD66D0CF0EAF6EAC84FEDC61D015
:100E5200670EAF6EAC84F9DC5CD0440EAF6EAC842E
:100E6200F4DC57D0220EAF6EAC84EFDC52D0060E0B
:100E7200006E58D0000E006E0001921908E1005079
:100E8200911905E1120E901902E18F51C00AD1E0C9
:100E9200000E006E921908E10050911905E1250E2D
:100EA200901902E18F51800AC9E0000E006E92197A
:100EB20008E10050911905E14B0E901902E18F51A2
:100EC200000AC1E0000E006E921908E1005091196B
:100ED20005E1960E901902E18F51000AB9E0000E69
:100EE200006E921908E10050911905E1E10E901986
:100EF20002E18F51000AB1E09251000A08E19151DA
:100F0200010A05E19051C20A02E18F51000AAAE0EA
:100F1200AED78A0E4F6E010E506E9F0E516E000EAE
:060F2200526E006A12008D
:100F280041C0E1FF42C0E2FFE66A3FC000F040C0B6
:100F380001F035EC01F08F0E0001936F000E946FF5
:100F4800010E956F000E966FE5DC900E936F000E04
:100F5800946F010E956F000E966F00DD41C0E1FFA2
:100F680042C0E2FF010EE66E3FC000F040C001F053
:0A0F780035EC01F090C000F012000B
:100F8200080E00018F25F66E000E9021F76E000EFE
:100F92009121F86E0900F5CF3FF00900F5CF40F03E
:0E0FA2000900F5CF41F00900F5CF42F0120032
:100FB00021D0CF0EAF6EAC9449DC6BD0670EAF6E14
:100FC000AC9444DC66D0CF0EAF6EAC843FDC61D015
:100FD000670EAF6EAC843ADC5CD0440EAF6EAC846E
:100FE00035DC57D0220EAF6EAC8430DC52D0060E0A
:100FF000006E58D0000E006E0001921908E10050FA
:10100000911905E1120E901902E18F51C00AD1E049
:10101000000E006E921908E10050911905E1250EAD
:10102000901902E18F51800AC9E0000E006E9219FA
:1010300008E10050911905E14B0E901902E18F5122
:10104000000AC1E0000E006E921908E100509119EB
:1010500005E1960E901902E18F51000AB9E0000EE9
:10106000006E921908E10050911905E1E10E901906
:1010700002E18F51000AB1E09251000A08E191515A
:10108000010A05E19051C20A02E18F51000AAAE06B
:10109000AED78A0E4F6E010E506E9F0E516E000E2F
:0610A000526E006A12000E
:1010A60027D0CF0EAF6EAC9426EC04F070D0670E4E
:1010B600AF6EAC9426EC04F06AD0CF0EAF6EAC8463
:1010C60026EC04F064D0670EAF6EAC8426EC04F018
:1010D6005ED0440EAF6EAC8426EC04F058D0220EDF
:1010E600AF6EAC8426EC04F052D0060E006E58D0DB
:1010F600000E006E0001921908E10050911905E1F9
:10110600120E901902E18F51C00ACBE0000E006E5C
:10111600921908E10050911905E1250E901902E196
:101126008F51800AC4E0000E006E921908E100504B
:10113600911905E14B0E901902E18F51000ABDE0AD
:10114600000E006E921908E10050911905E1960E05
:10115600901902E18F51000AB6E0000E006E921956
:1011660008E10050911905E1E10E901902E18F5155
:10117600000AAFE09251000A08E19151010A05E127
:101186009051C20A02E18F51000AA9E0AED78A0E39
:101196004F6E010E506E9F0E516E000E526E006A1B
:0211A600120035
:0611A800060E006E1200AD
:1011AE008FC0F6FF90C0F7FF91C0F8FF0900F5CF92
:1011BE0037F00900F5CF38F00900F5CF39F0090006
:1011CE00F5CF3AF0040E00018F25F66E000E902139
:1011DE00F76E000E9121F86E0900F5CF4BF0090065
:1011EE00F5CF4CF00900F5CF4DF00900F5CF4EF0DC
:0211FE001200DD
:101200008FC0F6FF90C0F7FF91C0F8FF0900F5CF3F
:1012100093F0040E00018F25F66E000E9021F76EFC
:10122000000E9121F86E0900F5CF94F0080E8F257D
:10123000F66E000E9021F76E000E9121F86E0900F7
:10124000F5CF95F00C0E8F25F66E000E9021F76EFF
:10125000000E9121F86E0900F5CF96F0F8EC03F03E
:06126000000E006E1200FA
:101266008FC0F6FF90C0F7FF91C0F8FF0900F5CFD9
:1012760093F0040E00018F25F66E000E9021F76E96
:10128600000E9121F86E0900F5CF94F0080E8F2517
:10129600F66E000E9021F76E000E9121F86E090091
:1012A600F5CF95F00C0E8F25F66E000E9021F76E99
:1012B600000E9121F86E0900F5CF96F0F8EC03F0D8
:0612C600000E006E120094
:0812CC00067ED7EC04F01200CD
:1012D40057D0000190B102D0929001D0928076D084
:1012E400000190B102D0949001D094806FD000019D
:1012F40090B102D0969001D0968068D0000190B150
:1013040002D0949601D0948661D0000190B102D0AD
:10131400949801D094885AD0000190B102D0949A44
:1013240001D0948A53D0000190B102D0949201D09C
:1013340094824CD0000190B102D0939001D093805C
:1013440045D0000190B102D0949E01D0948E3ED03D
:10135400000190B102D0949C01D0948C37D000014C
:1013640090B102D0949601D0948630D0000190B10F
:1013740002D0949801D0948829D0010E006E28D010
:1013840000018F51000AA5E08F51010AA9E08F5195
:10139400020AADE08F51030AB1E08F51040AB5E0AF
:1013A4008F51050AB9E08F51060ABDE08F51070A33
:1013B400C1E08F51080AC5E08F51090AC9E08F5175
:1013C4000A0ACDE08F510B0AD1E0D7D7000E006E88
:0213D400120005
:1013D6008FC004F090C005F004C002F005C003F011
:1013E600044A052A91C000F092C001F00001914B19
:1013F600922B00C0E9FF01C0EAFF02C0E1FF03C073
:10140600E2FFEECFE6FF02C0E9FF03C0EAFFEE52BD
:0E14160001E0E2D78FC000F090C001F012009C
:101424000050086E0150006E016A026A036A0B6A7A
:101434000C6A960E036E0A6A00C001F008C000F040
:0A144400086A026A51EC04F012007D
:10144E000450000A12E10550000A0FE10650000A8E
:10145E000CE10750000A09E1FF0E006EFF0E016E4F
:10146E007F0E026EFF0E036EA8D0086A096A07503F
:10147E00D8B4D2EF0AF00350D8B4D7EF0AF0025026
:10148E0006180A6E028E068E0E6A02C008F001C0A1
:10149E000CF000C00DF004500D5E0550D8A0053CB8
:1014AE000C5E0650D8A0063C085E086A0C6A0D6AEF
:1014BE00D8A069EF0AF0D890023201320032083219
:1014CE00010E0E6E0750035ED8A076EF0AF07E0E68
:1014DE000E240326D8B0DCEF0AF07CEF0AF07E0E65
:1014EE000E240326D8A0E1EF0AF0180E0B6E0D366F
:1014FE000C3608360036013602360E360450005EC3
:10150E000550D8A0053C015E0650D8A0063C025EF0
:10151E0006340E120EA097EF0AF00D80A2EF0AF01D
:10152E00045000260550D8B0053C01260650D8B010
:10153E00062802260D900B2E7EEF0AF0C8EF0AF059
:10154E00D8900036013602360E360450005E055035
:10155E00D8A0053C015E0650D8A0063C025E0634BB
:10156E000E10010B0D26D8B00C2AD8B4082AD8A418
:10157E00C8EF0AF008320C320D32032AD8B4DCEF71
:10158E000AF00AAE089E0850026E0C50016E0D5005
:10159E00006EE4EF0AF0010E8AEC04F0E4EF0AF0BC
:1015AE00020E8EEC02F0E4EF0AF0040EFBEC02F0F9
:0C15BE00E4EF0AF0080E04EC02F012004A
:1015CA00086A096A000E076203646AEF0BF00250A8
:1015DA0006180A6E075003267E0ED8A0FBEF0AF003
:1015EA00035ED8B06FEF0BF0FFEF0AF0035ED8A0EE
:1015FA0074EF0BF0028E068E02C00EF001C00BF0E3
:10160A0000C00DF000500402F4CF0CF001500502A6
:10161A00F4CF00F0F3CF08F00402F3500C26F45094
:10162A000822000E00220D500502F3500C26F45039
:10163A000822000E002202500402F3500826F45039
:10164A00002202500502016A000E0122F350002610
:10165A00F45001220D500602F3500826F4500022DD
:10166A00026A000E012202220B500602F3500026E3
:10167A00F4500122000E02220E500602F3500126F7
:10168A00F450022202BE52EF0BF008360036013641
:10169A0002360306D8B474EF0BF065EF0BF0D8806E
:1016AA00800E08640030000E002201220222D8A017
:1016BA0065EF0BF0023201320032034A6FEF0BF092
:1016CA000AAE029E000E77EF0BF0010E8EEC02F0CE
:1016DA0077EF0BF0020EFBEC02F077EF0BF0040E43
:0616EA0004EC02F0120006
:1016F00057D0000190B102D0929401D0928476D05C
:10170000000190B102D0969601D096866FD000016C
:1017100090B102D0969401D0968468D0000190B127
:1017200002D0949601D0948661D0000190B102D08D
:10173000949801D094885AD0000190B102D0949A24
:1017400001D0948A53D0000190B102D0989001D07A
:1017500098804CD0000190B102D0939401D0938432
:1017600045D0000190B102D0989401D098843ED029
:10177000000190B102D0989201D0988237D0000138
:1017800090B102D0949601D0948630D0000190B1EF
:1017900002D0949801D0948829D0010E006E28D0F0
:1017A00000018F51000AA5E08F51010AA9E08F5175
:1017B000020AADE08F51030AB1E08F51040AB5E08F
:1017C0008F51050AB9E08F51060ABDE08F51070A13
:1017D000C1E08F51080AC5E08F51090AC9E08F5155
:1017E0000A0ACDE08F510B0AD1E0D7D7000E006E68
:0217F0001200E5
:1017F20051C0E1FF52C0E2FF8FC0E9FF90C0EAFF93
:10180200EECFE6FF4FC000F050C001F035EC01F022
:04181200006A120056
:1018160057D0000190B102D0929201D0928276D038
:10182600000190B102D0929801D092886FD0000149
:1018360090B102D0969201D0968268D0000190B104
:1018460002D0949601D0948661D0000190B102D066
:10185600949801D094885AD0000190B102D0949AFD
:1018660001D0948A53D0000190B102D0949401D053
:1018760094844CD0000190B102D0939201D093820F
:1018860045D0000190B102D0949E01D0948E3ED0F6
:10189600000190B102D0949C01D0948C37D0000105
:1018A60090B102D0949601D0948630D0000190B1C8
:1018B60002D0949801D0948829D0010E006E28D0C9
:1018C60000018F51000AA5E08F51010AA9E08F514E
:1018D600020AADE08F51030AB1E08F51040AB5E068
:1018E6008F51050AB9E08F51060ABDE08F51070AEC
:1018F600C1E08F51080AC5E08F51090AC9E08F512E
:101906000A0ACDE08F510B0AD1E0D7D7000E006E40
:021916001200BD
:101918000A6A0350D8A40A800750D8A40A820A5039
:10192800D8B4EFEF0CF0030AD8B4A8EF0CF00AB063
:10193800A3EF0CF006AEEDEF0CF0EBEF0CF002AEFF
:10194800EBEF0CF0EDEF0CF00250800B0A6E029EEC
:101958000650800B069E0A18D8B4B9EF0CF00A504E
:10196800D8B4EBEF0CF0EDEF0CF00750035CD8B4F3
:10197800C3EF0CF0D8A0DFEF0CF0E5EF0CF0065049
:10198800025CD8B4CDEF0CF0D8A0DFEF0CF0E5EF97
:101998000CF00550015CD8B4D7EF0CF0D8A0DFEFFD
:1019A8000CF0E5EF0CF00450005CD8B4EFEF0CF04D
:1019B800D8B0E5EF0CF00A52D8B4EDEF0CF0EBEF2D
:1019C8000CF00A52D8B4EBEF0CF0EDEF0CF0D88025
:0E19D8001200D8901200D880D884120012009D
:1019E6000D6A086A0050D8B4000C04180A6E0ABEC4
:1019F6000D1E0B6A04AE02D0041E042A00AE02D0ED
:101A0600001E002A005004100A6E0ABE1FD00450A1
:101A1600085E003600340836045008260036060EE6
:101A26000C6E00340836045000B0085E00A008268C
:101A360000360C2EF6D700A008260BB015D00DAE3A
:101A4600000C001E002A081E082A000C04AE09D04D
:101A560000BE04D00050086E006AF1D7006A002A62
:101A6600000C001E0B2AD3D7082A0450085CD8A401
:0E1A7600E6D7086A002A00AEE2D7FF0C120085
:101A840015D082C08FF083C090F022DC1AD082C0BF
:101A94008FF083C090F0BDDE14D082C08FF083C07D
:101AA40090F024DE0ED0010E006E0BD000018151A7
:101AB400000AE7E08151010AEAE08151020AEDE0FF
:041AC400F2D7120043
:101AC8001ED082C08FF083C090F084C091F0E7EC04
:101AD80006F020D082C08FF083C090F084C091F0CF
:101AE80000EC09F017D082C08FF083C090F084C05A
:101AF80091F033EC09F00ED0010E006E0BD000010E
:101B08008151000ADEE08151010AE4E08151020AB4
:061B1800EAE0F2D7120022
:101B1E002FD082C08FF083C090F084C091F085C02A
:101B2E0092F019EC07F032D082C08FF083C090F0A3
:101B3E0084C091F085C092F0D8EC07F027D082C017
:101B4E008FF083C090F084C091F085C092F0D4ECF9
:101B5E0008F01CD082C08FF083C090F084C091F04A
:101B6E0085C092F053EC08F011D0010E006E0ED02D
:101B7E0000018151000ACDE08151010AD5E0815169
:0E1B8E00020ADDE08151100AE5E0EFD71200F7
:101B9C000900F5CFE6FF0006FBE10106F9E11200B2
:101BAC0081C084F082C085F00D0E0001866F0A0E94
:101BBC00876F35D084C08FF085C090F014DE3AD09A
:101BCC0084C0E9FF85C0EAFFEE5209E084C08FF0C3
:101BDC0085C090F008DE0001844B852BF1D72AD00C
:101BEC0084C0E9FF85C0EAFFEE5209E084C08FF0A3
:101BFC0085C090F0F8DD0001844B852BF1D70001F6
:101C0C00860E8F6F000E906FEEDD870E00018F6FCA
:101C1C00000E906FE8DD0ED0060E006E0CD00001A9
:101C2C008351000AC7E08351010ACAE08351020ABA
:081C3C00D7E0F2D7006A1200A4
:101C440083C000F084C001F012EC0AF0000E046EB0
:101C5400000E056E480E066E870E076E27EC0AF01E
:101C640000C085F001C086F002C087F003C088F090
:101C740081C000F082C001F001320032019E00C038
:101C840081F001C082F012EC0AF085C004F086C035
:101C940005F087C006F088C007F095DC000E046EDE
:101CA400000E056E000E066E840E076E27EC0AF019
:101CB400000E046E000E056E000E066E870E076E93
:061CC40066EC09F01200BD
:101CCA0000018D6B8E6B81C089F082C08AF083C05F
:101CDA008BF084C08CF08C51FF0A08E18B51FF0A0B
:101CEA0005E18A51FF0A02E18951FF0A0DE185C027
:101CFA008FF086C090F01B0E916F000E926FEBEC86
:101D0A0009F0030E006EEDD1010E876F8BAF0ED076
:101D1A00800E8B19006E00C08BF0872B85C0E1FF07
:101D2A0086C0E2FF2D0EE66E854B862B000E006EF6
:101D3A008C1908E100508B1905E100508A1902E15B
:101D4A008951000A0CE185C08FF086C090F0190E07
:101D5A00916F000E926FEBEC09F0006AC2D18C51C0
:101D6A00FF0A08E18B51000A05E18A51000A02E1E3
:101D7A008951000A0DE185C08FF086C090F0230ECC
:101D8A00916F000E926FEBEC09F087C000F0A9D1B9
:101D9A00000E046E000E056E000E066E7F0E076EB4
:101DAA0089C000F08AC001F08BC002F08CC003F039
:101DBA00AEDD010ED8B0000E006E00521CE089C0E4
:101DCA0000F08AC001F08BC002F08CC003F0000E54
:101DDA00046E000E056E200E066E820E076EE5EC8E
:101DEA000AF000C089F001C08AF002C08BF003C07B
:101DFA008CF08E07CDD7000E046E000E056E200EF5
:101E0A00066E820E076E89C000F08AC001F08BC090
:101E1A0002F08CC003F07BDD000ED8B0010E006E1C
:101E2A0000521CE089C000F08AC001F08BC002F0A9
:101E3A008CC003F0CD0E046ECC0E056E4C0E066EF1
:101E4A007B0E076EE5EC0AF000C089F001C08AF04B
:101E5A0002C08BF003C08CF08E2BCDD7FF0E8915F4
:101E6A00086EFF0E8A15096E7F0E8B150A6E000E1C
:101E7A008C150B6E08C004F009C005F00AC006F004
:101E8A000BC007F004360490053606360736000EF6
:101E9A008915006E000E8A15016E000E8B15026EF2
:101EAA00FF0E8C15036E00C089F001C08AF002C0D3
:101EBA008BF003C08CF004508911006E05508A1112
:101ECA00016E06508B11026E07508C11036E00C012
:101EDA0089F001C08AF002C08BF003C08CF07F0E3B
:101EEA008C5D006E00C088F0010E8C6F00C004F09B
:101EFA0089C000F08AC001F08BC002F08CC003F0E8
:101F0A00045007E000360090013602360336FF0F10
:101F1A00F8D700C089F001C08AF002C08BF003C074
:101F2A008CF085C0E1FF86C0E2FF8C51300FE66E6F
:101F3A00854B862B800E8E19006E800E010A005C7E
:101F4A0008E3800E060A006E800E8E19005C01E31B
:101F5A000AD085C0E1FF86C0E2FF2E0EE66E854BF1
:101F6A00862B010E8D6F060E886F8851000A54E089
:101F7A008C6B89C000F08AC001F08BC002F08CC063
:101F8A0003F0003600900136023603360036009020
:101F9A00013602360336895100268A5101228B51B5
:101FAA0002228C51032200C089F001C08AF002C0CB
:101FBA008BF003C08CF089C000F08AC001F08BC09E
:101FCA0002F08CC003F00036009001360236033668
:101FDA0000C089F001C08AF002C08BF003C08CF007
:101FEA0085C0E1FF86C0E2FF8C51300FE66E854B5B
:101FFA00862B8D51000A0EE18E078E51000A0AE1E6
:10200A0085C0E1FF86C0E2FF2E0EE66E854B862B69
:10201A00010E8D6F8807A9D7FF0E8525E96EFF0E81
:10202A008621EA6EEE50300A05E1010E855F000E48
:10203A00865BF2D7FF0E8525E96EFF0E8621EA6ED2
:10204A00EE502E0A04E1010E855F000E865B8E516A
:10205A00000A41E085C0E1FF86C0E2FF650EE66E38
:10206A00854B862B800E8E19006E800E000A005C4E
:10207A000BE285C0E1FF86C0E2FF2D0EE66E854BBE
:10208A00862B8E5100088E6F8EC088F0800E090A4A
:10209A00006E800E8E19005C0EE20A0E046E88C075
:1020AA0000F09CDC85C0E1FF86C0E2FF0050300FE3
:1020BA00E66E854B862B0A0E046E88C000F08EDC15
:1020CA0008C000F085C0E1FF86C0E2FF0050300F73
:1020DA00E66E854B862B85C0E1FF86C0E2FFE66A85
:0420EA00006A120076
:1020EE00010E00018F6F94EC07F000C081F0000E1E
:1020FE000001826F81C001F0006A00C081F001C052
:10210E0082F0020E8F6F94EC07F0005000018113E5
:0E211E00000E821381C000F082C001F012009A
:10212C0084C08FF085C090F086C091F0D7EC08F099
:10213C0081C08FF082C090F083C091F0C1EC07F0A9
:02214C0012007F
:10214E00800E00018111006E00C081F000C083F08E
:10215E0082C084F041C0E1FF42C0E2FFE66A3FC0A8
:10216E0000F040C001F035EC01F0830E0001936FDA
:10217E00000E946F020E956F000E966F8EEC04F0AB
:10218E0041C0E1FF42C0E2FF010EE66E3FC000F02B
:0A219E0040C001F035EC01F0120022
:1021A8000001816B020E826F836B68DC0001816B1A
:1021B8003C0E826F230E836F000E846F81DC100E3D
:1021C800816F800E826F250E836F000E846F856F7E
:1021D800A2DC090E0B6E1E0E0C6EE40E0D6E0D2E9B
:0E21E800FED70C2EFCD70B2EFAD700001200EB
:1021F600B40E0001816F220E826F000E836F4C0EAB
:10220600846F230E856F000E866F8DDF000E816F43
:08221600D00E826F99DF120067
:10221E0067DF00C081F001C082F0D60E836F010E21
:10222E00846F09DD00C081F001C082F002C083F02E
:10223E0003C084F06D0E0001856F000E866F3EDDCB
:10224E00140EF66E230EF76E000EF86E570EE16E3C
:10225E00000EE26E160E006E010E016E98DC570E29
:10226E00816F000E826F010E836F99DC6D0E00017F
:10227E00816F000E826F020E836F91DC520E0B6E19
:10228E002B0E0C6E000E0D6E0D2EFED70C2EFCD7E7
:08229E000B2EFAD7000012001C
:0E22A600AAEC11F07EDFA4DFB7DFFED7FFD772
:1023540010EE15F0120E006E010E016E2A0EF66ECE
:0E236400230EF76E000EF86ECEEC0DF0120098
:1022B40018019F000A019F0034019F0026019F001E
:1022C400DE019F00D0019F00FA019F00EC019F00F6
:1022D400A6019F0098019F00C2019F00B4019F00C6
:1022E400FFFFFFFFFFFFFFFFFFFFFFFFFFFFFFFFFA
:1022F400FFFFFFFFFFFFFFFFFFFFFFFFFFFFFFFFEA
:10230400FFFFFFFFFFFFFFFFFFFFFFFFFFFFFFFFD9
:1023140043757272656E742074656D706572617454
:062324007572653A20000D
:04232A0000000000AF
:02232E0030007D
:042330004E614E00AC
:0423340000000000A5
:04233800494E4600C4
:10233C00020000000000000000000000000000008F
:08234C005E019F003E049900B0
:020000040030CA
:0E00000015137F7CF98B91FFFFC0FFE0FF40DE
:00000001FF
